{
  "_format": "hh-sol-artifact-1",
  "contractName": "MyEpicNFT",
  "sourceName": "contracts/MyEpicNFT.sol",
  "abi": [
    {
      "inputs": [],
      "stateMutability": "nonpayable",
      "type": "constructor"
    },
    {
      "anonymous": false,
      "inputs": [
        {
          "indexed": true,
          "internalType": "address",
          "name": "owner",
          "type": "address"
        },
        {
          "indexed": true,
          "internalType": "address",
          "name": "approved",
          "type": "address"
        },
        {
          "indexed": true,
          "internalType": "uint256",
          "name": "tokenId",
          "type": "uint256"
        }
      ],
      "name": "Approval",
      "type": "event"
    },
    {
      "anonymous": false,
      "inputs": [
        {
          "indexed": true,
          "internalType": "address",
          "name": "owner",
          "type": "address"
        },
        {
          "indexed": true,
          "internalType": "address",
          "name": "operator",
          "type": "address"
        },
        {
          "indexed": false,
          "internalType": "bool",
          "name": "approved",
          "type": "bool"
        }
      ],
      "name": "ApprovalForAll",
      "type": "event"
    },
    {
      "anonymous": false,
      "inputs": [
        {
          "indexed": true,
          "internalType": "address",
          "name": "from",
          "type": "address"
        },
        {
          "indexed": true,
          "internalType": "address",
          "name": "to",
          "type": "address"
        },
        {
          "indexed": true,
          "internalType": "uint256",
          "name": "tokenId",
          "type": "uint256"
        }
      ],
      "name": "Transfer",
      "type": "event"
    },
    {
      "anonymous": false,
      "inputs": [
        {
          "indexed": false,
          "internalType": "address",
          "name": "sender",
          "type": "address"
        },
        {
          "indexed": false,
          "internalType": "uint256",
          "name": "tokenID",
          "type": "uint256"
        }
      ],
      "name": "newEpicNFTMinted",
      "type": "event"
    },
    {
      "inputs": [
        {
          "internalType": "address",
          "name": "to",
          "type": "address"
        },
        {
          "internalType": "uint256",
          "name": "tokenId",
          "type": "uint256"
        }
      ],
      "name": "approve",
      "outputs": [],
      "stateMutability": "nonpayable",
      "type": "function"
    },
    {
      "inputs": [
        {
          "internalType": "address",
          "name": "owner",
          "type": "address"
        }
      ],
      "name": "balanceOf",
      "outputs": [
        {
          "internalType": "uint256",
          "name": "",
          "type": "uint256"
        }
      ],
      "stateMutability": "view",
      "type": "function"
    },
    {
      "inputs": [
        {
          "internalType": "uint256",
          "name": "tokenId",
          "type": "uint256"
        }
      ],
      "name": "getApproved",
      "outputs": [
        {
          "internalType": "address",
          "name": "",
          "type": "address"
        }
      ],
      "stateMutability": "view",
      "type": "function"
    },
    {
      "inputs": [
        {
          "internalType": "address",
          "name": "owner",
          "type": "address"
        },
        {
          "internalType": "address",
          "name": "operator",
          "type": "address"
        }
      ],
      "name": "isApprovedForAll",
      "outputs": [
        {
          "internalType": "bool",
          "name": "",
          "type": "bool"
        }
      ],
      "stateMutability": "view",
      "type": "function"
    },
    {
      "inputs": [],
      "name": "makeEpicNFT",
      "outputs": [],
      "stateMutability": "nonpayable",
      "type": "function"
    },
    {
      "inputs": [],
      "name": "name",
      "outputs": [
        {
          "internalType": "string",
          "name": "",
          "type": "string"
        }
      ],
      "stateMutability": "view",
      "type": "function"
    },
    {
      "inputs": [
        {
          "internalType": "uint256",
          "name": "tokenId",
          "type": "uint256"
        }
      ],
      "name": "ownerOf",
      "outputs": [
        {
          "internalType": "address",
          "name": "",
          "type": "address"
        }
      ],
      "stateMutability": "view",
      "type": "function"
    },
    {
      "inputs": [
        {
          "internalType": "uint256",
          "name": "tokenId",
          "type": "uint256"
        }
      ],
      "name": "pickFirstRandomWord",
      "outputs": [
        {
          "internalType": "string",
          "name": "",
          "type": "string"
        }
      ],
      "stateMutability": "view",
      "type": "function"
    },
    {
      "inputs": [
        {
          "internalType": "uint256",
          "name": "tokenId",
          "type": "uint256"
        }
      ],
      "name": "pickRandomColor",
      "outputs": [
        {
          "internalType": "string",
          "name": "",
          "type": "string"
        }
      ],
      "stateMutability": "view",
      "type": "function"
    },
    {
      "inputs": [
        {
          "internalType": "uint256",
          "name": "tokenId",
          "type": "uint256"
        }
      ],
      "name": "pickSecondRandomWord",
      "outputs": [
        {
          "internalType": "string",
          "name": "",
          "type": "string"
        }
      ],
      "stateMutability": "view",
      "type": "function"
    },
    {
      "inputs": [
        {
          "internalType": "uint256",
          "name": "tokenId",
          "type": "uint256"
        }
      ],
      "name": "pickThirdRandomWord",
      "outputs": [
        {
          "internalType": "string",
          "name": "",
          "type": "string"
        }
      ],
      "stateMutability": "view",
      "type": "function"
    },
    {
      "inputs": [
        {
          "internalType": "address",
          "name": "from",
          "type": "address"
        },
        {
          "internalType": "address",
          "name": "to",
          "type": "address"
        },
        {
          "internalType": "uint256",
          "name": "tokenId",
          "type": "uint256"
        }
      ],
      "name": "safeTransferFrom",
      "outputs": [],
      "stateMutability": "nonpayable",
      "type": "function"
    },
    {
      "inputs": [
        {
          "internalType": "address",
          "name": "from",
          "type": "address"
        },
        {
          "internalType": "address",
          "name": "to",
          "type": "address"
        },
        {
          "internalType": "uint256",
          "name": "tokenId",
          "type": "uint256"
        },
        {
          "internalType": "bytes",
          "name": "data",
          "type": "bytes"
        }
      ],
      "name": "safeTransferFrom",
      "outputs": [],
      "stateMutability": "nonpayable",
      "type": "function"
    },
    {
      "inputs": [
        {
          "internalType": "address",
          "name": "operator",
          "type": "address"
        },
        {
          "internalType": "bool",
          "name": "approved",
          "type": "bool"
        }
      ],
      "name": "setApprovalForAll",
      "outputs": [],
      "stateMutability": "nonpayable",
      "type": "function"
    },
    {
      "inputs": [
        {
          "internalType": "bytes4",
          "name": "interfaceId",
          "type": "bytes4"
        }
      ],
      "name": "supportsInterface",
      "outputs": [
        {
          "internalType": "bool",
          "name": "",
          "type": "bool"
        }
      ],
      "stateMutability": "view",
      "type": "function"
    },
    {
      "inputs": [],
      "name": "symbol",
      "outputs": [
        {
          "internalType": "string",
          "name": "",
          "type": "string"
        }
      ],
      "stateMutability": "view",
      "type": "function"
    },
    {
      "inputs": [
        {
          "internalType": "string",
          "name": "svg",
          "type": "string"
        },
        {
          "internalType": "uint256",
          "name": "_tokenId",
          "type": "uint256"
        }
      ],
      "name": "tokenURI",
      "outputs": [
        {
          "internalType": "string",
          "name": "",
          "type": "string"
        }
      ],
      "stateMutability": "view",
      "type": "function"
    },
    {
      "inputs": [
        {
          "internalType": "uint256",
          "name": "tokenId",
          "type": "uint256"
        }
      ],
      "name": "tokenURI",
      "outputs": [
        {
          "internalType": "string",
          "name": "",
          "type": "string"
        }
      ],
      "stateMutability": "view",
      "type": "function"
    },
    {
      "inputs": [
        {
          "internalType": "address",
          "name": "from",
          "type": "address"
        },
        {
          "internalType": "address",
          "name": "to",
          "type": "address"
        },
        {
          "internalType": "uint256",
          "name": "tokenId",
          "type": "uint256"
        }
      ],
      "name": "transferFrom",
      "outputs": [],
      "stateMutability": "nonpayable",
      "type": "function"
    }
  ],
  "bytecode": "0x608060405260405180610100016040528060d3815260200162004c0960d39139600890816200002f919062000d5f565b5060405180608001604052806056815260200162004cdc60569139600990816200005a919062000d5f565b506040518060e001604052806040518060400160405280600781526020017f417765736f6d650000000000000000000000000000000000000000000000000081525081526020016040518060400160405280600581526020017f46756e6e7900000000000000000000000000000000000000000000000000000081525081526020016040518060400160405280600581526020017f4c75636b7900000000000000000000000000000000000000000000000000000081525081526020016040518060400160405280600581526020017f4a656c6c7900000000000000000000000000000000000000000000000000000081525081526020016040518060400160405280600581526020017f42756c6c7900000000000000000000000000000000000000000000000000000081525081526020016040518060400160405280600781526020017f42756c6c6973680000000000000000000000000000000000000000000000000081525081526020016040518060400160405280600881526020017f426561726c697368000000000000000000000000000000000000000000000000815250815250600a9060076200021392919062000938565b506040518061012001604052806040518060400160405280600581526020017f5368616b7900000000000000000000000000000000000000000000000000000081525081526020016040518060400160405280600581526020017f426967677900000000000000000000000000000000000000000000000000000081525081526020016040518060400160405280600581526020017f44616e796100000000000000000000000000000000000000000000000000000081525081526020016040518060400160405280600481526020017f416c62610000000000000000000000000000000000000000000000000000000081525081526020016040518060400160405280600381526020017f456461000000000000000000000000000000000000000000000000000000000081525081526020016040518060400160405280600681526020017f43686172696b000000000000000000000000000000000000000000000000000081525081526020016040518060400160405280600381526020017f416c61000000000000000000000000000000000000000000000000000000000081525081526020016040518060400160405280600381526020017f526f6c000000000000000000000000000000000000000000000000000000000081525081526020016040518060400160405280600581526020017f4b6c696d61000000000000000000000000000000000000000000000000000000815250815250600b9060096200044392919062000998565b506040518060e001604052806040518060400160405280600781526020017f47656e6572616c0000000000000000000000000000000000000000000000000081525081526020016040518060400160405280600481526020017f476e696c0000000000000000000000000000000000000000000000000000000081525081526020016040518060400160405280600681526020017f506574757368000000000000000000000000000000000000000000000000000081525081526020016040518060400160405280600981526020017f576974684572696b61000000000000000000000000000000000000000000000081525081526020016040518060400160405280600681526020017f466574697368000000000000000000000000000000000000000000000000000081525081526020016040518060400160405280600581526020017f4d6570746800000000000000000000000000000000000000000000000000000081525081526020016040518060400160405280600581526020017f54656d6b61000000000000000000000000000000000000000000000000000000815250815250600c906007620005fc92919062000938565b506040518060c001604052806040518060400160405280600381526020017f726564000000000000000000000000000000000000000000000000000000000081525081526020016040518060400160405280600781526020017f233038433241380000000000000000000000000000000000000000000000000081525081526020016040518060400160405280600581526020017f626c61636b00000000000000000000000000000000000000000000000000000081525081526020016040518060400160405280600681526020017f79656c6c6f77000000000000000000000000000000000000000000000000000081525081526020016040518060400160405280600481526020017f626c75650000000000000000000000000000000000000000000000000000000081525081526020016040518060400160405280600581526020017f677265656e000000000000000000000000000000000000000000000000000000815250815250600d9060066200077a929190620009f8565b503480156200078857600080fd5b506040518060400160405280600981526020017f5371756172654e465400000000000000000000000000000000000000000000008152506040518060400160405280600681526020017f5351554152450000000000000000000000000000000000000000000000000000815250816000908162000806919062000d5f565b50806001908162000818919062000d5f565b505050620008666040518060400160405280601881526020017f54686973206973206d79206e667420636f6e74726163742100000000000000008152506200086c60201b620011881760201c565b62000ef9565b6200090c8160405160240162000883919062000ed5565b6040516020818303038152906040527f41304fac000000000000000000000000000000000000000000000000000000007bffffffffffffffffffffffffffffffffffffffffffffffffffffffff19166020820180517bffffffffffffffffffffffffffffffffffffffffffffffffffffffff83818316178352505050506200090f60201b60201c565b50565b60008151905060006a636f6e736f6c652e6c6f679050602083016000808483855afa5050505050565b82805482825590600052602060002090810192821562000985579160200282015b828111156200098457825182908162000973919062000d5f565b509160200191906001019062000959565b5b50905062000994919062000a58565b5090565b828054828255906000526020600020908101928215620009e5579160200282015b82811115620009e4578251829081620009d3919062000d5f565b5091602001919060010190620009b9565b5b509050620009f4919062000a58565b5090565b82805482825590600052602060002090810192821562000a45579160200282015b8281111562000a4457825182908162000a33919062000d5f565b509160200191906001019062000a19565b5b50905062000a54919062000a58565b5090565b5b8082111562000a7c576000818162000a72919062000a80565b5060010162000a59565b5090565b50805462000a8e9062000b4e565b6000825580601f1062000aa2575062000ac3565b601f01602090049060005260206000209081019062000ac2919062000ac6565b5b50565b5b8082111562000ae157600081600090555060010162000ac7565b5090565b600081519050919050565b7f4e487b7100000000000000000000000000000000000000000000000000000000600052604160045260246000fd5b7f4e487b7100000000000000000000000000000000000000000000000000000000600052602260045260246000fd5b6000600282049050600182168062000b6757607f821691505b60208210810362000b7d5762000b7c62000b1f565b5b50919050565b60008190508160005260206000209050919050565b60006020601f8301049050919050565b600082821b905092915050565b60006008830262000be77fffffffffffffffffffffffffffffffffffffffffffffffffffffffffffffffff8262000ba8565b62000bf3868362000ba8565b95508019841693508086168417925050509392505050565b6000819050919050565b6000819050919050565b600062000c4062000c3a62000c348462000c0b565b62000c15565b62000c0b565b9050919050565b6000819050919050565b62000c5c8362000c1f565b62000c7462000c6b8262000c47565b84845462000bb5565b825550505050565b600090565b62000c8b62000c7c565b62000c9881848462000c51565b505050565b5b8181101562000cc05762000cb460008262000c81565b60018101905062000c9e565b5050565b601f82111562000d0f5762000cd98162000b83565b62000ce48462000b98565b8101602085101562000cf4578190505b62000d0c62000d038562000b98565b83018262000c9d565b50505b505050565b600082821c905092915050565b600062000d346000198460080262000d14565b1980831691505092915050565b600062000d4f838362000d21565b9150826002028217905092915050565b62000d6a8262000ae5565b67ffffffffffffffff81111562000d865762000d8562000af0565b5b62000d92825462000b4e565b62000d9f82828562000cc4565b600060209050601f83116001811462000dd7576000841562000dc2578287015190505b62000dce858262000d41565b86555062000e3e565b601f19841662000de78662000b83565b60005b8281101562000e115784890151825560018201915060208501945060208101905062000dea565b8683101562000e31578489015162000e2d601f89168262000d21565b8355505b6001600288020188555050505b505050505050565b600082825260208201905092915050565b60005b8381101562000e7757808201518184015260208101905062000e5a565b60008484015250505050565b6000601f19601f8301169050919050565b600062000ea18262000ae5565b62000ead818562000e46565b935062000ebf81856020860162000e57565b62000eca8162000e83565b840191505092915050565b6000602082019050818103600083015262000ef1818462000e94565b905092915050565b613d008062000f096000396000f3fe608060405234801561001057600080fd5b50600436106101215760003560e01c806370a08231116100ad578063a22cb46511610071578063a22cb46514610340578063b88d4fde1461035c578063c87b56dd14610378578063e985e9c5146103a8578063fbb7c1f1146103d857610121565b806370a082311461026257806395d89b41146102925780639b02ad2c146102b05780639b330cb9146102e0578063a198d84a1461031057610121565b806323b872dd116100f457806323b872dd146101c057806342842e0e146101dc578063514dc8c6146101f857806362b41f49146102285780636352211e1461023257610121565b806301ffc9a71461012657806306fdde0314610156578063081812fc14610174578063095ea7b3146101a4575b600080fd5b610140600480360381019061013b9190612506565b610408565b60405161014d919061254e565b60405180910390f35b61015e6104ea565b60405161016b91906125f9565b60405180910390f35b61018e60048036038101906101899190612651565b61057c565b60405161019b91906126bf565b60405180910390f35b6101be60048036038101906101b99190612706565b6105c2565b005b6101da60048036038101906101d59190612746565b6106d9565b005b6101f660048036038101906101f19190612746565b610739565b005b610212600480360381019061020d9190612651565b610759565b60405161021f91906125f9565b60405180910390f35b610230610851565b005b61024c60048036038101906102479190612651565b610a54565b60405161025991906126bf565b60405180910390f35b61027c60048036038101906102779190612799565b610ada565b60405161028991906127d5565b60405180910390f35b61029a610b91565b6040516102a791906125f9565b60405180910390f35b6102ca60048036038101906102c59190612651565b610c23565b6040516102d791906125f9565b60405180910390f35b6102fa60048036038101906102f59190612925565b610d1b565b60405161030791906125f9565b60405180910390f35b61032a60048036038101906103259190612651565b610d7a565b60405161033791906125f9565b60405180910390f35b61035a600480360381019061035591906129ad565b610e72565b005b61037660048036038101906103719190612a8e565b610e88565b005b610392600480360381019061038d9190612651565b610eea565b60405161039f91906125f9565b60405180910390f35b6103c260048036038101906103bd9190612b11565b610ffc565b6040516103cf919061254e565b60405180910390f35b6103f260048036038101906103ed9190612651565b611090565b6040516103ff91906125f9565b60405180910390f35b60007f80ac58cd000000000000000000000000000000000000000000000000000000007bffffffffffffffffffffffffffffffffffffffffffffffffffffffff1916827bffffffffffffffffffffffffffffffffffffffffffffffffffffffff191614806104d357507f5b5e139f000000000000000000000000000000000000000000000000000000007bffffffffffffffffffffffffffffffffffffffffffffffffffffffff1916827bffffffffffffffffffffffffffffffffffffffffffffffffffffffff1916145b806104e357506104e282611221565b5b9050919050565b6060600080546104f990612b80565b80601f016020809104026020016040519081016040528092919081815260200182805461052590612b80565b80156105725780601f1061054757610100808354040283529160200191610572565b820191906000526020600020905b81548152906001019060200180831161055557829003601f168201915b5050505050905090565b60006105878261128b565b6004600083815260200190815260200160002060009054906101000a900473ffffffffffffffffffffffffffffffffffffffff169050919050565b60006105cd82610a54565b90508073ffffffffffffffffffffffffffffffffffffffff168373ffffffffffffffffffffffffffffffffffffffff160361063d576040517f08c379a000000000000000000000000000000000000000000000000000000000815260040161063490612c23565b60405180910390fd5b8073ffffffffffffffffffffffffffffffffffffffff1661065c6112d6565b73ffffffffffffffffffffffffffffffffffffffff16148061068b575061068a816106856112d6565b610ffc565b5b6106ca576040517f08c379a00000000000000000000000000000000000000000000000000000000081526004016106c190612cb5565b60405180910390fd5b6106d483836112de565b505050565b6106ea6106e46112d6565b82611397565b610729576040517f08c379a000000000000000000000000000000000000000000000000000000000815260040161072090612d47565b60405180910390fd5b61073483838361142c565b505050565b61075483838360405180602001604052806000815250610e88565b505050565b6060600061078d61076984611725565b6040516020016107799190612def565b6040516020818303038152906040526117f3565b9050600d80549050816107a09190612e40565b9050600d81815481106107b6576107b5612e71565b5b9060005260206000200180546107cb90612b80565b80601f01602080910402602001604051908101604052809291908181526020018280546107f790612b80565b80156108445780601f1061081957610100808354040283529160200191610844565b820191906000526020600020905b81548152906001019060200180831161082757829003601f168201915b5050505050915050919050565b600061085d6007611826565b9050600061086a82611090565b9050600061087783610c23565b9050600061088484610d7a565b9050600083838360405160200161089d93929190612ea0565b60405160208183030381529060405290506108b781611188565b60006108c286610759565b905060006008826009856040516020016108df9493929190612fb5565b60405160208183030381529060405290506000610924846108ff84611834565b604051602001610910929190613154565b604051602081830303815290604052611834565b90506109646040518060400160405280601581526020017f0a2d2d2d2d2d2d2d2d2d2d2d2d2d2d2d2d2d2d2d2d0000000000000000000000815250611188565b61096d81611188565b6109ab6040518060400160405280601581526020017f2d2d2d2d2d2d2d2d2d2d2d2d2d2d2d2d2d2d2d2d0a0000000000000000000000815250611188565b6000816040516020016109be91906131e5565b60405160208183030381529060405290506109d9338a6119cb565b6109e389826119e9565b6109ed6007611a56565b610a10604051806060016040528060258152602001613c66602591398a33611a6c565b7f1805e33b4922dde682d9c92ef9cc943d42dabc651dd055d450069b4ef78836c4338a604051610a41929190613207565b60405180910390a1505050505050505050565b600080610a6083611b0b565b9050600073ffffffffffffffffffffffffffffffffffffffff168173ffffffffffffffffffffffffffffffffffffffff1603610ad1576040517f08c379a0000000000000000000000000000000000000000000000000000000008152600401610ac89061327c565b60405180910390fd5b80915050919050565b60008073ffffffffffffffffffffffffffffffffffffffff168273ffffffffffffffffffffffffffffffffffffffff1603610b4a576040517f08c379a0000000000000000000000000000000000000000000000000000000008152600401610b419061330e565b60405180910390fd5b600360008373ffffffffffffffffffffffffffffffffffffffff1673ffffffffffffffffffffffffffffffffffffffff168152602001908152602001600020549050919050565b606060018054610ba090612b80565b80601f0160208091040260200160405190810160405280929190818152602001828054610bcc90612b80565b8015610c195780601f10610bee57610100808354040283529160200191610c19565b820191906000526020600020905b815481529060010190602001808311610bfc57829003601f168201915b5050505050905090565b60606000610c57610c3384611725565b604051602001610c43919061337a565b6040516020818303038152906040526117f3565b9050600b8054905081610c6a9190612e40565b9050600b8181548110610c8057610c7f612e71565b5b906000526020600020018054610c9590612b80565b80601f0160208091040260200160405190810160405280929190818152602001828054610cc190612b80565b8015610d0e5780601f10610ce357610100808354040283529160200191610d0e565b820191906000526020600020905b815481529060010190602001808311610cf157829003601f168201915b5050505050915050919050565b6060610d2682611b48565b610d2f57600080fd5b610d52604051806060016040528060258152602001613c66602591398333611a6c565b82604051602001610d6391906131e5565b604051602081830303815290604052905092915050565b60606000610dae610d8a84611725565b604051602001610d9a9190612def565b6040516020818303038152906040526117f3565b9050600c8054905081610dc19190612e40565b9050600c8181548110610dd757610dd6612e71565b5b906000526020600020018054610dec90612b80565b80601f0160208091040260200160405190810160405280929190818152602001828054610e1890612b80565b8015610e655780601f10610e3a57610100808354040283529160200191610e65565b820191906000526020600020905b815481529060010190602001808311610e4857829003601f168201915b5050505050915050919050565b610e84610e7d6112d6565b8383611b89565b5050565b610e99610e936112d6565b83611397565b610ed8576040517f08c379a0000000000000000000000000000000000000000000000000000000008152600401610ecf90612d47565b60405180910390fd5b610ee484848484611cf5565b50505050565b6060610ef58261128b565b6000600660008481526020019081526020016000208054610f1590612b80565b80601f0160208091040260200160405190810160405280929190818152602001828054610f4190612b80565b8015610f8e5780601f10610f6357610100808354040283529160200191610f8e565b820191906000526020600020905b815481529060010190602001808311610f7157829003601f168201915b505050505090506000610f9f611d51565b90506000815103610fb4578192505050610ff7565b600082511115610fe9578082604051602001610fd192919061339c565b60405160208183030381529060405292505050610ff7565b610ff284611d68565b925050505b919050565b6000600560008473ffffffffffffffffffffffffffffffffffffffff1673ffffffffffffffffffffffffffffffffffffffff16815260200190815260200160002060008373ffffffffffffffffffffffffffffffffffffffff1673ffffffffffffffffffffffffffffffffffffffff16815260200190815260200160002060009054906101000a900460ff16905092915050565b606060006110c46110a084611725565b6040516020016110b0919061340c565b6040516020818303038152906040526117f3565b9050600a80549050816110d79190612e40565b9050600a81815481106110ed576110ec612e71565b5b90600052602060002001805461110290612b80565b80601f016020809104026020016040519081016040528092919081815260200182805461112e90612b80565b801561117b5780601f106111505761010080835404028352916020019161117b565b820191906000526020600020905b81548152906001019060200180831161115e57829003601f168201915b5050505050915050919050565b61121e8160405160240161119c91906125f9565b6040516020818303038152906040527f41304fac000000000000000000000000000000000000000000000000000000007bffffffffffffffffffffffffffffffffffffffffffffffffffffffff19166020820180517bffffffffffffffffffffffffffffffffffffffffffffffffffffffff8381831617835250505050611dd0565b50565b60007f01ffc9a7000000000000000000000000000000000000000000000000000000007bffffffffffffffffffffffffffffffffffffffffffffffffffffffff1916827bffffffffffffffffffffffffffffffffffffffffffffffffffffffff1916149050919050565b61129481611b48565b6112d3576040517f08c379a00000000000000000000000000000000000000000000000000000000081526004016112ca9061327c565b60405180910390fd5b50565b600033905090565b816004600083815260200190815260200160002060006101000a81548173ffffffffffffffffffffffffffffffffffffffff021916908373ffffffffffffffffffffffffffffffffffffffff160217905550808273ffffffffffffffffffffffffffffffffffffffff1661135183610a54565b73ffffffffffffffffffffffffffffffffffffffff167f8c5be1e5ebec7d5bd14f71427d1e84f3dd0314c0f7b2291e5b200ac8c7c3b92560405160405180910390a45050565b6000806113a383610a54565b90508073ffffffffffffffffffffffffffffffffffffffff168473ffffffffffffffffffffffffffffffffffffffff1614806113e557506113e48185610ffc565b5b8061142357508373ffffffffffffffffffffffffffffffffffffffff1661140b8461057c565b73ffffffffffffffffffffffffffffffffffffffff16145b91505092915050565b8273ffffffffffffffffffffffffffffffffffffffff1661144c82610a54565b73ffffffffffffffffffffffffffffffffffffffff16146114a2576040517f08c379a0000000000000000000000000000000000000000000000000000000008152600401611499906134a0565b60405180910390fd5b600073ffffffffffffffffffffffffffffffffffffffff168273ffffffffffffffffffffffffffffffffffffffff1603611511576040517f08c379a000000000000000000000000000000000000000000000000000000000815260040161150890613532565b60405180910390fd5b61151e8383836001611df9565b8273ffffffffffffffffffffffffffffffffffffffff1661153e82610a54565b73ffffffffffffffffffffffffffffffffffffffff1614611594576040517f08c379a000000000000000000000000000000000000000000000000000000000815260040161158b906134a0565b60405180910390fd5b6004600082815260200190815260200160002060006101000a81549073ffffffffffffffffffffffffffffffffffffffff02191690556001600360008573ffffffffffffffffffffffffffffffffffffffff1673ffffffffffffffffffffffffffffffffffffffff168152602001908152602001600020600082825403925050819055506001600360008473ffffffffffffffffffffffffffffffffffffffff1673ffffffffffffffffffffffffffffffffffffffff16815260200190815260200160002060008282540192505081905550816002600083815260200190815260200160002060006101000a81548173ffffffffffffffffffffffffffffffffffffffff021916908373ffffffffffffffffffffffffffffffffffffffff160217905550808273ffffffffffffffffffffffffffffffffffffffff168473ffffffffffffffffffffffffffffffffffffffff167fddf252ad1be2c89b69c2b068fc378daa952ba7f163c4a11628f55a4df523b3ef60405160405180910390a46117208383836001611f1f565b505050565b60606000600161173484611f25565b01905060008167ffffffffffffffff811115611753576117526127fa565b5b6040519080825280601f01601f1916602001820160405280156117855781602001600182028036833780820191505090505b509050600082602001820190505b6001156117e8578080600190039150507f3031323334353637383961626364656600000000000000000000000000000000600a86061a8153600a85816117dc576117db612e11565b5b04945060008503611793575b819350505050919050565b6000816040516020016118069190613552565b6040516020818303038152906040528051906020012060001c9050919050565b600081600001549050919050565b60606000825190506000810361185c57604051806020016040528060008152509150506119c6565b6000600360028361186d9190613598565b61187791906135cc565b600461188391906135fd565b905060006020826118949190613598565b67ffffffffffffffff8111156118ad576118ac6127fa565b5b6040519080825280601f01601f1916602001820160405280156118df5781602001600182028036833780820191505090505b5090506000604051806060016040528060408152602001613c8b604091399050600181016020830160005b868110156119835760038101905062ffffff818a015116603f8160121c168401518060081b905060ff603f83600c1c1686015116810190508060081b905060ff603f8360061c1686015116810190508060081b905060ff603f831686015116810190508060e01b9050808452600484019350505061190a565b50600386066001811461199d57600281146119ad576119b8565b613d3d60f01b60028303526119b8565b603d60f81b60018303525b508484525050819450505050505b919050565b6119e5828260405180602001604052806000815250612078565b5050565b6119f282611b48565b611a31576040517f08c379a0000000000000000000000000000000000000000000000000000000008152600401611a28906136b1565b60405180910390fd5b80600660008481526020019081526020016000209081611a519190613868565b505050565b6001816000016000828254019250508190555050565b611b06838383604051602401611a849392919061393a565b6040516020818303038152906040527f1c7ec448000000000000000000000000000000000000000000000000000000007bffffffffffffffffffffffffffffffffffffffffffffffffffffffff19166020820180517bffffffffffffffffffffffffffffffffffffffffffffffffffffffff8381831617835250505050611dd0565b505050565b60006002600083815260200190815260200160002060009054906101000a900473ffffffffffffffffffffffffffffffffffffffff169050919050565b60008073ffffffffffffffffffffffffffffffffffffffff16611b6a83611b0b565b73ffffffffffffffffffffffffffffffffffffffff1614159050919050565b8173ffffffffffffffffffffffffffffffffffffffff168373ffffffffffffffffffffffffffffffffffffffff1603611bf7576040517f08c379a0000000000000000000000000000000000000000000000000000000008152600401611bee906139c4565b60405180910390fd5b80600560008573ffffffffffffffffffffffffffffffffffffffff1673ffffffffffffffffffffffffffffffffffffffff16815260200190815260200160002060008473ffffffffffffffffffffffffffffffffffffffff1673ffffffffffffffffffffffffffffffffffffffff16815260200190815260200160002060006101000a81548160ff0219169083151502179055508173ffffffffffffffffffffffffffffffffffffffff168373ffffffffffffffffffffffffffffffffffffffff167f17307eab39ab6107e8899845ad3d59bd9653f200f220920489ca2b5937696c3183604051611ce8919061254e565b60405180910390a3505050565b611d0084848461142c565b611d0c848484846120d3565b611d4b576040517f08c379a0000000000000000000000000000000000000000000000000000000008152600401611d4290613a56565b60405180910390fd5b50505050565b606060405180602001604052806000815250905090565b6060611d738261128b565b6000611d7d611d51565b90506000815111611d9d5760405180602001604052806000815250611dc8565b80611da784611725565b604051602001611db892919061339c565b6040516020818303038152906040525b915050919050565b60008151905060006a636f6e736f6c652e6c6f679050602083016000808483855afa5050505050565b6001811115611f1957600073ffffffffffffffffffffffffffffffffffffffff168473ffffffffffffffffffffffffffffffffffffffff1614611e8d5780600360008673ffffffffffffffffffffffffffffffffffffffff1673ffffffffffffffffffffffffffffffffffffffff1681526020019081526020016000206000828254611e859190613a76565b925050819055505b600073ffffffffffffffffffffffffffffffffffffffff168373ffffffffffffffffffffffffffffffffffffffff1614611f185780600360008573ffffffffffffffffffffffffffffffffffffffff1673ffffffffffffffffffffffffffffffffffffffff1681526020019081526020016000206000828254611f109190613598565b925050819055505b5b50505050565b50505050565b600080600090507a184f03e93ff9f4daa797ed6e38ed64bf6a1f0100000000000000008310611f83577a184f03e93ff9f4daa797ed6e38ed64bf6a1f0100000000000000008381611f7957611f78612e11565b5b0492506040810190505b6d04ee2d6d415b85acef81000000008310611fc0576d04ee2d6d415b85acef81000000008381611fb657611fb5612e11565b5b0492506020810190505b662386f26fc100008310611fef57662386f26fc100008381611fe557611fe4612e11565b5b0492506010810190505b6305f5e1008310612018576305f5e100838161200e5761200d612e11565b5b0492506008810190505b612710831061203d57612710838161203357612032612e11565b5b0492506004810190505b60648310612060576064838161205657612055612e11565b5b0492506002810190505b600a831061206f576001810190505b80915050919050565b612082838361225a565b61208f60008484846120d3565b6120ce576040517f08c379a00000000000000000000000000000000000000000000000000000000081526004016120c590613a56565b60405180910390fd5b505050565b60006120f48473ffffffffffffffffffffffffffffffffffffffff16612477565b1561224d578373ffffffffffffffffffffffffffffffffffffffff1663150b7a0261211d6112d6565b8786866040518563ffffffff1660e01b815260040161213f9493929190613aff565b6020604051808303816000875af192505050801561217b57506040513d601f19601f820116820180604052508101906121789190613b60565b60015b6121fd573d80600081146121ab576040519150601f19603f3d011682016040523d82523d6000602084013e6121b0565b606091505b5060008151036121f5576040517f08c379a00000000000000000000000000000000000000000000000000000000081526004016121ec90613a56565b60405180910390fd5b805181602001fd5b63150b7a0260e01b7bffffffffffffffffffffffffffffffffffffffffffffffffffffffff1916817bffffffffffffffffffffffffffffffffffffffffffffffffffffffff191614915050612252565b600190505b949350505050565b600073ffffffffffffffffffffffffffffffffffffffff168273ffffffffffffffffffffffffffffffffffffffff16036122c9576040517f08c379a00000000000000000000000000000000000000000000000000000000081526004016122c090613bd9565b60405180910390fd5b6122d281611b48565b15612312576040517f08c379a000000000000000000000000000000000000000000000000000000000815260040161230990613c45565b60405180910390fd5b612320600083836001611df9565b61232981611b48565b15612369576040517f08c379a000000000000000000000000000000000000000000000000000000000815260040161236090613c45565b60405180910390fd5b6001600360008473ffffffffffffffffffffffffffffffffffffffff1673ffffffffffffffffffffffffffffffffffffffff16815260200190815260200160002060008282540192505081905550816002600083815260200190815260200160002060006101000a81548173ffffffffffffffffffffffffffffffffffffffff021916908373ffffffffffffffffffffffffffffffffffffffff160217905550808273ffffffffffffffffffffffffffffffffffffffff16600073ffffffffffffffffffffffffffffffffffffffff167fddf252ad1be2c89b69c2b068fc378daa952ba7f163c4a11628f55a4df523b3ef60405160405180910390a4612473600083836001611f1f565b5050565b6000808273ffffffffffffffffffffffffffffffffffffffff163b119050919050565b6000604051905090565b600080fd5b600080fd5b60007fffffffff0000000000000000000000000000000000000000000000000000000082169050919050565b6124e3816124ae565b81146124ee57600080fd5b50565b600081359050612500816124da565b92915050565b60006020828403121561251c5761251b6124a4565b5b600061252a848285016124f1565b91505092915050565b60008115159050919050565b61254881612533565b82525050565b6000602082019050612563600083018461253f565b92915050565b600081519050919050565b600082825260208201905092915050565b60005b838110156125a3578082015181840152602081019050612588565b60008484015250505050565b6000601f19601f8301169050919050565b60006125cb82612569565b6125d58185612574565b93506125e5818560208601612585565b6125ee816125af565b840191505092915050565b6000602082019050818103600083015261261381846125c0565b905092915050565b6000819050919050565b61262e8161261b565b811461263957600080fd5b50565b60008135905061264b81612625565b92915050565b600060208284031215612667576126666124a4565b5b60006126758482850161263c565b91505092915050565b600073ffffffffffffffffffffffffffffffffffffffff82169050919050565b60006126a98261267e565b9050919050565b6126b98161269e565b82525050565b60006020820190506126d460008301846126b0565b92915050565b6126e38161269e565b81146126ee57600080fd5b50565b600081359050612700816126da565b92915050565b6000806040838503121561271d5761271c6124a4565b5b600061272b858286016126f1565b925050602061273c8582860161263c565b9150509250929050565b60008060006060848603121561275f5761275e6124a4565b5b600061276d868287016126f1565b935050602061277e868287016126f1565b925050604061278f8682870161263c565b9150509250925092565b6000602082840312156127af576127ae6124a4565b5b60006127bd848285016126f1565b91505092915050565b6127cf8161261b565b82525050565b60006020820190506127ea60008301846127c6565b92915050565b600080fd5b600080fd5b7f4e487b7100000000000000000000000000000000000000000000000000000000600052604160045260246000fd5b612832826125af565b810181811067ffffffffffffffff82111715612851576128506127fa565b5b80604052505050565b600061286461249a565b90506128708282612829565b919050565b600067ffffffffffffffff8211156128905761288f6127fa565b5b612899826125af565b9050602081019050919050565b82818337600083830152505050565b60006128c86128c384612875565b61285a565b9050828152602081018484840111156128e4576128e36127f5565b5b6128ef8482856128a6565b509392505050565b600082601f83011261290c5761290b6127f0565b5b813561291c8482602086016128b5565b91505092915050565b6000806040838503121561293c5761293b6124a4565b5b600083013567ffffffffffffffff81111561295a576129596124a9565b5b612966858286016128f7565b92505060206129778582860161263c565b9150509250929050565b61298a81612533565b811461299557600080fd5b50565b6000813590506129a781612981565b92915050565b600080604083850312156129c4576129c36124a4565b5b60006129d2858286016126f1565b92505060206129e385828601612998565b9150509250929050565b600067ffffffffffffffff821115612a0857612a076127fa565b5b612a11826125af565b9050602081019050919050565b6000612a31612a2c846129ed565b61285a565b905082815260208101848484011115612a4d57612a4c6127f5565b5b612a588482856128a6565b509392505050565b600082601f830112612a7557612a746127f0565b5b8135612a85848260208601612a1e565b91505092915050565b60008060008060808587031215612aa857612aa76124a4565b5b6000612ab6878288016126f1565b9450506020612ac7878288016126f1565b9350506040612ad88782880161263c565b925050606085013567ffffffffffffffff811115612af957612af86124a9565b5b612b0587828801612a60565b91505092959194509250565b60008060408385031215612b2857612b276124a4565b5b6000612b36858286016126f1565b9250506020612b47858286016126f1565b9150509250929050565b7f4e487b7100000000000000000000000000000000000000000000000000000000600052602260045260246000fd5b60006002820490506001821680612b9857607f821691505b602082108103612bab57612baa612b51565b5b50919050565b7f4552433732313a20617070726f76616c20746f2063757272656e74206f776e6560008201527f7200000000000000000000000000000000000000000000000000000000000000602082015250565b6000612c0d602183612574565b9150612c1882612bb1565b604082019050919050565b60006020820190508181036000830152612c3c81612c00565b9050919050565b7f4552433732313a20617070726f76652063616c6c6572206973206e6f7420746f60008201527f6b656e206f776e6572206f7220617070726f76656420666f7220616c6c000000602082015250565b6000612c9f603d83612574565b9150612caa82612c43565b604082019050919050565b60006020820190508181036000830152612cce81612c92565b9050919050565b7f4552433732313a2063616c6c6572206973206e6f7420746f6b656e206f776e6560008201527f72206f7220617070726f76656400000000000000000000000000000000000000602082015250565b6000612d31602d83612574565b9150612d3c82612cd5565b604082019050919050565b60006020820190508181036000830152612d6081612d24565b9050919050565b600081905092915050565b7f54484952445f574f524400000000000000000000000000000000000000000000600082015250565b6000612da8600a83612d67565b9150612db382612d72565b600a82019050919050565b6000612dc982612569565b612dd38185612d67565b9350612de3818560208601612585565b80840191505092915050565b6000612dfa82612d9b565b9150612e068284612dbe565b915081905092915050565b7f4e487b7100000000000000000000000000000000000000000000000000000000600052601260045260246000fd5b6000612e4b8261261b565b9150612e568361261b565b925082612e6657612e65612e11565b5b828206905092915050565b7f4e487b7100000000000000000000000000000000000000000000000000000000600052603260045260246000fd5b6000612eac8286612dbe565b9150612eb88285612dbe565b9150612ec48284612dbe565b9150819050949350505050565b60008190508160005260206000209050919050565b60008154612ef381612b80565b612efd8186612d67565b94506001821660008114612f185760018114612f2d57612f60565b60ff1983168652811515820286019350612f60565b612f3685612ed1565b60005b83811015612f5857815481890152600182019150602081019050612f39565b838801955050505b50505092915050565b7f3c2f746578743e3c2f7376673e00000000000000000000000000000000000000600082015250565b6000612f9f600d83612d67565b9150612faa82612f69565b600d82019050919050565b6000612fc18287612ee6565b9150612fcd8286612dbe565b9150612fd98285612ee6565b9150612fe58284612dbe565b9150612ff082612f92565b915081905095945050505050565b7f7b226e616d65223a202200000000000000000000000000000000000000000000600082015250565b6000613034600a83612d67565b915061303f82612ffe565b600a82019050919050565b7f222c20226465736374697074696f6e223a224120686967686c79206163636c6160008201527f696d656420636f6c6c656374696f6e206f6620737175617265732e222c20226960208201527f6d616765223a2022646174613a696d6167652f7376672b786d6c3b626173653660408201527f342c000000000000000000000000000000000000000000000000000000000000606082015250565b60006130f2606283612d67565b91506130fd8261304a565b606282019050919050565b7f227d000000000000000000000000000000000000000000000000000000000000600082015250565b600061313e600283612d67565b915061314982613108565b600282019050919050565b600061315f82613027565b915061316b8285612dbe565b9150613176826130e5565b91506131828284612dbe565b915061318d82613131565b91508190509392505050565b7f646174613a6170706c69636174696f6e2f6a736f6e3b6261736536342c000000600082015250565b60006131cf601d83612d67565b91506131da82613199565b601d82019050919050565b60006131f0826131c2565b91506131fc8284612dbe565b915081905092915050565b600060408201905061321c60008301856126b0565b61322960208301846127c6565b9392505050565b7f4552433732313a20696e76616c696420746f6b656e2049440000000000000000600082015250565b6000613266601883612574565b915061327182613230565b602082019050919050565b6000602082019050818103600083015261329581613259565b9050919050565b7f4552433732313a2061646472657373207a65726f206973206e6f74206120766160008201527f6c6964206f776e65720000000000000000000000000000000000000000000000602082015250565b60006132f8602983612574565b91506133038261329c565b604082019050919050565b60006020820190508181036000830152613327816132eb565b9050919050565b7f5365636f6e6420576f7264000000000000000000000000000000000000000000600082015250565b6000613364600b83612d67565b915061336f8261332e565b600b82019050919050565b600061338582613357565b91506133918284612dbe565b915081905092915050565b60006133a88285612dbe565b91506133b48284612dbe565b91508190509392505050565b7f466972737420576f726400000000000000000000000000000000000000000000600082015250565b60006133f6600a83612d67565b9150613401826133c0565b600a82019050919050565b6000613417826133e9565b91506134238284612dbe565b915081905092915050565b7f4552433732313a207472616e736665722066726f6d20696e636f72726563742060008201527f6f776e6572000000000000000000000000000000000000000000000000000000602082015250565b600061348a602583612574565b91506134958261342e565b604082019050919050565b600060208201905081810360008301526134b98161347d565b9050919050565b7f4552433732313a207472616e7366657220746f20746865207a65726f2061646460008201527f7265737300000000000000000000000000000000000000000000000000000000602082015250565b600061351c602483612574565b9150613527826134c0565b604082019050919050565b6000602082019050818103600083015261354b8161350f565b9050919050565b600061355e8284612dbe565b915081905092915050565b7f4e487b7100000000000000000000000000000000000000000000000000000000600052601160045260246000fd5b60006135a38261261b565b91506135ae8361261b565b92508282019050808211156135c6576135c5613569565b5b92915050565b60006135d78261261b565b91506135e28361261b565b9250826135f2576135f1612e11565b5b828204905092915050565b60006136088261261b565b91506136138361261b565b92508282026136218161261b565b9150828204841483151761363857613637613569565b5b5092915050565b7f45524337323155524953746f726167653a2055524920736574206f66206e6f6e60008201527f6578697374656e7420746f6b656e000000000000000000000000000000000000602082015250565b600061369b602e83612574565b91506136a68261363f565b604082019050919050565b600060208201905081810360008301526136ca8161368e565b9050919050565b60006020601f8301049050919050565b600082821b905092915050565b60006008830261371e7fffffffffffffffffffffffffffffffffffffffffffffffffffffffffffffffff826136e1565b61372886836136e1565b95508019841693508086168417925050509392505050565b6000819050919050565b600061376561376061375b8461261b565b613740565b61261b565b9050919050565b6000819050919050565b61377f8361374a565b61379361378b8261376c565b8484546136ee565b825550505050565b600090565b6137a861379b565b6137b3818484613776565b505050565b5b818110156137d7576137cc6000826137a0565b6001810190506137b9565b5050565b601f82111561381c576137ed81612ed1565b6137f6846136d1565b81016020851015613805578190505b613819613811856136d1565b8301826137b8565b50505b505050565b600082821c905092915050565b600061383f60001984600802613821565b1980831691505092915050565b6000613858838361382e565b9150826002028217905092915050565b61387182612569565b67ffffffffffffffff81111561388a576138896127fa565b5b6138948254612b80565b61389f8282856137db565b600060209050601f8311600181146138d257600084156138c0578287015190505b6138ca858261384c565b865550613932565b601f1984166138e086612ed1565b60005b82811015613908578489015182556001820191506020850194506020810190506138e3565b868310156139255784890151613921601f89168261382e565b8355505b6001600288020188555050505b505050505050565b6000606082019050818103600083015261395481866125c0565b905061396360208301856127c6565b61397060408301846126b0565b949350505050565b7f4552433732313a20617070726f766520746f2063616c6c657200000000000000600082015250565b60006139ae601983612574565b91506139b982613978565b602082019050919050565b600060208201905081810360008301526139dd816139a1565b9050919050565b7f4552433732313a207472616e7366657220746f206e6f6e20455243373231526560008201527f63656976657220696d706c656d656e7465720000000000000000000000000000602082015250565b6000613a40603283612574565b9150613a4b826139e4565b604082019050919050565b60006020820190508181036000830152613a6f81613a33565b9050919050565b6000613a818261261b565b9150613a8c8361261b565b9250828203905081811115613aa457613aa3613569565b5b92915050565b600081519050919050565b600082825260208201905092915050565b6000613ad182613aaa565b613adb8185613ab5565b9350613aeb818560208601612585565b613af4816125af565b840191505092915050565b6000608082019050613b1460008301876126b0565b613b2160208301866126b0565b613b2e60408301856127c6565b8181036060830152613b408184613ac6565b905095945050505050565b600081519050613b5a816124da565b92915050565b600060208284031215613b7657613b756124a4565b5b6000613b8484828501613b4b565b91505092915050565b7f4552433732313a206d696e7420746f20746865207a65726f2061646472657373600082015250565b6000613bc3602083612574565b9150613bce82613b8d565b602082019050919050565b60006020820190508181036000830152613bf281613bb6565b9050919050565b7f4552433732313a20746f6b656e20616c7265616479206d696e74656400000000600082015250565b6000613c2f601c83612574565b9150613c3a82613bf9565b602082019050919050565b60006020820190508181036000830152613c5e81613c22565b905091905056fe416e204e465420772f20494420257320686173206265656e206d696e74656420746f2025734142434445464748494a4b4c4d4e4f505152535455565758595a6162636465666768696a6b6c6d6e6f707172737475767778797a303132333435363738392b2fa2646970667358221220984bde3444b804ecdd4f1b2725ca2ee7c1eb8d5814d9fe5d2041413f708833df64736f6c634300081100333c73766720786d6c6e733d27687474703a2f2f7777772e77332e6f72672f323030302f73766727207072657365727665417370656374526174696f3d27784d696e594d696e206d656574272076696577426f783d273020302033353020333530273e3c7374796c653e2e62617365207b2066696c6c3a2077686974653b20666f6e742d66616d696c793a2073657269663b20666f6e742d73697a653a20323470783b207d3c2f7374796c653e3c726563742077696474683d273130302527206865696768743d2731303025272066696c6c3d27272f3e3c7465787420783d273530252720793d273530252720636c6173733d27626173652720646f6d696e616e742d626173656c696e653d276d6964646c652720746578742d616e63686f723d276d6964646c65273e",
  "linkReferences": {},
  "deployedLinkReferences": {}
}